{
  "contractName": "CertiicateStorage",
  "abi": [
    {
      "inputs": [
        {
          "internalType": "uint256",
          "name": "",
          "type": "uint256"
        }
      ],
      "name": "Certs",
      "outputs": [
        {
          "internalType": "uint256",
          "name": "id",
          "type": "uint256"
        },
        {
          "internalType": "string",
          "name": "Issuer",
          "type": "string"
        },
        {
          "internalType": "string",
          "name": "Owner",
          "type": "string"
        }
      ],
      "stateMutability": "view",
      "type": "function",
      "constant": true
    },
    {
      "inputs": [],
      "name": "getCertificates",
      "outputs": [
        {
          "components": [
            {
              "internalType": "uint256",
              "name": "id",
              "type": "uint256"
            },
            {
              "internalType": "string",
              "name": "Issuer",
              "type": "string"
            },
            {
              "internalType": "string",
              "name": "Owner",
              "type": "string"
            }
          ],
          "internalType": "struct CertiicateStorage.Cert[]",
          "name": "",
          "type": "tuple[]"
        }
      ],
      "stateMutability": "view",
      "type": "function",
      "constant": true
    },
    {
      "inputs": [
        {
          "internalType": "string",
          "name": "_issuer",
          "type": "string"
        },
        {
          "internalType": "string",
          "name": "_owner",
          "type": "string"
        }
      ],
      "name": "inputCert",
      "outputs": [
        {
          "internalType": "string",
          "name": "",
          "type": "string"
        }
      ],
      "stateMutability": "nonpayable",
      "type": "function"
    },
    {
      "inputs": [
        {
          "internalType": "uint256",
          "name": "_id",
          "type": "uint256"
        }
      ],
      "name": "validateCert",
      "outputs": [
        {
          "internalType": "string",
          "name": "",
          "type": "string"
        }
      ],
      "stateMutability": "view",
      "type": "function",
      "constant": true
    }
  ],
  "bytecode": "0x608060405234801561001057600080fd5b50610f3a806100206000396000f3fe608060405234801561001057600080fd5b506004361061004c5760003560e01c80631f5ddb4f146100515780636cbe330b1461006f578063a5fb08861461009f578063d5bedb6c146100d1575b600080fd5b610059610101565b6040516100669190610b12565b60405180910390f35b610089600480360381019061008491906108e6565b61028e565b6040516100969190610b34565b60405180910390f35b6100b960048036038101906100b491906108e6565b610390565b6040516100c893929190610b56565b60405180910390f35b6100eb60048036038101906100e6919061087a565b6104da565b6040516100f89190610b34565b60405180910390f35b60606000805480602002602001604051908101604052809291908181526020016000905b8282101561028557838290600052602060002090600302016040518060600160405290816000820154815260200160018201805461016290610d74565b80601f016020809104026020016040519081016040528092919081815260200182805461018e90610d74565b80156101db5780601f106101b0576101008083540402835291602001916101db565b820191906000526020600020905b8154815290600101906020018083116101be57829003601f168201915b505050505081526020016002820180546101f490610d74565b80601f016020809104026020016040519081016040528092919081815260200182805461022090610d74565b801561026d5780601f106102425761010080835404028352916020019161026d565b820191906000526020600020905b81548152906001019060200180831161025057829003601f168201915b50505050508152505081526020019060010190610125565b50505050905090565b60606000805b60008054905081101561030c5783600082815481106102dc577f4e487b7100000000000000000000000000000000000000000000000000000000600052603260045260246000fd5b90600052602060002090600302016000015414156102f957600191505b808061030490610da6565b915050610294565b508015610351576040518060400160405280600e81526020017f446174612056616c69646174656400000000000000000000000000000000000081525091505061038b565b6040518060400160405280600c81526020017f44617461204d697373696e6700000000000000000000000000000000000000008152509150505b919050565b600081815481106103a057600080fd5b90600052602060002090600302016000915090508060000154908060010180546103c990610d74565b80601f01602080910402602001604051908101604052809291908181526020018280546103f590610d74565b80156104425780601f1061041757610100808354040283529160200191610442565b820191906000526020600020905b81548152906001019060200180831161042557829003601f168201915b50505050509080600201805461045790610d74565b80601f016020809104026020016040519081016040528092919081815260200182805461048390610d74565b80156104d05780601f106104a5576101008083540402835291602001916104d0565b820191906000526020600020905b8154815290600101906020018083116104b357829003601f168201915b5050505050905083565b6060600060405180606001604052806000805490508152602001858152602001848152509050600081908060018154018082558091505060019003906000526020600020906003020160009091909190915060008201518160000155602082015181600101908051906020019061055292919061075a565b50604082015181600201908051906020019061056f92919061075a565b505050600061058182600001516105ad565b6040516020016105919190610af0565b6040516020818303038152906040529050809250505092915050565b606060008214156105f5576040518060400160405280600181526020017f30000000000000000000000000000000000000000000000000000000000000008152509050610755565b600082905060005b6000821461062757808061061090610da6565b915050600a826106209190610cc3565b91506105fd565b60008167ffffffffffffffff811115610669577f4e487b7100000000000000000000000000000000000000000000000000000000600052604160045260246000fd5b6040519080825280601f01601f19166020018201604052801561069b5781602001600182028036833780820191505090505b5090505b6000851461074e576001826106b49190610cf4565b9150600a856106c39190610def565b60306106cf9190610c6d565b60f81b81838151811061070b577f4e487b7100000000000000000000000000000000000000000000000000000000600052603260045260246000fd5b60200101907effffffffffffffffffffffffffffffffffffffffffffffffffffffffffffff1916908160001a905350600a856107479190610cc3565b945061069f565b8093505050505b919050565b82805461076690610d74565b90600052602060002090601f01602090048101928261078857600085556107cf565b82601f106107a157805160ff19168380011785556107cf565b828001600101855582156107cf579182015b828111156107ce5782518255916020019190600101906107b3565b5b5090506107dc91906107e0565b5090565b5b808211156107f95760008160009055506001016107e1565b5090565b600061081061080b84610bcc565b610b9b565b90508281526020810184848401111561082857600080fd5b610833848285610d32565b509392505050565b600082601f83011261084c57600080fd5b813561085c8482602086016107fd565b91505092915050565b60008135905061087481610eed565b92915050565b6000806040838503121561088d57600080fd5b600083013567ffffffffffffffff8111156108a757600080fd5b6108b38582860161083b565b925050602083013567ffffffffffffffff8111156108d057600080fd5b6108dc8582860161083b565b9150509250929050565b6000602082840312156108f857600080fd5b600061090684828501610865565b91505092915050565b600061091b8383610a7b565b905092915050565b600061092e82610c0c565b6109388185610c2f565b93508360208202850161094a85610bfc565b8060005b858110156109865784840389528151610967858261090f565b945061097283610c22565b925060208a0199505060018101905061094e565b50829750879550505050505092915050565b60006109a382610c17565b6109ad8185610c40565b93506109bd818560208601610d41565b6109c681610edc565b840191505092915050565b60006109dc82610c17565b6109e68185610c51565b93506109f6818560208601610d41565b6109ff81610edc565b840191505092915050565b6000610a1582610c17565b610a1f8185610c62565b9350610a2f818560208601610d41565b80840191505092915050565b6000610a48601b83610c62565b91507f49642043657274696669636174652077697468206e756d6265722000000000006000830152601b82019050919050565b6000606083016000830151610a936000860182610ad2565b5060208301518482036020860152610aab8282610998565b91505060408301518482036040860152610ac58282610998565b9150508091505092915050565b610adb81610d28565b82525050565b610aea81610d28565b82525050565b6000610afb82610a3b565b9150610b078284610a0a565b915081905092915050565b60006020820190508181036000830152610b2c8184610923565b905092915050565b60006020820190508181036000830152610b4e81846109d1565b905092915050565b6000606082019050610b6b6000830186610ae1565b8181036020830152610b7d81856109d1565b90508181036040830152610b9181846109d1565b9050949350505050565b6000604051905081810181811067ffffffffffffffff82111715610bc257610bc1610ead565b5b8060405250919050565b600067ffffffffffffffff821115610be757610be6610ead565b5b601f19601f8301169050602081019050919050565b6000819050602082019050919050565b600081519050919050565b600081519050919050565b6000602082019050919050565b600082825260208201905092915050565b600082825260208201905092915050565b600082825260208201905092915050565b600081905092915050565b6000610c7882610d28565b9150610c8383610d28565b9250827fffffffffffffffffffffffffffffffffffffffffffffffffffffffffffffffff03821115610cb857610cb7610e20565b5b828201905092915050565b6000610cce82610d28565b9150610cd983610d28565b925082610ce957610ce8610e4f565b5b828204905092915050565b6000610cff82610d28565b9150610d0a83610d28565b925082821015610d1d57610d1c610e20565b5b828203905092915050565b6000819050919050565b82818337600083830152505050565b60005b83811015610d5f578082015181840152602081019050610d44565b83811115610d6e576000848401525b50505050565b60006002820490506001821680610d8c57607f821691505b60208210811415610da057610d9f610e7e565b5b50919050565b6000610db182610d28565b91507fffffffffffffffffffffffffffffffffffffffffffffffffffffffffffffffff821415610de457610de3610e20565b5b600182019050919050565b6000610dfa82610d28565b9150610e0583610d28565b925082610e1557610e14610e4f565b5b828206905092915050565b7f4e487b7100000000000000000000000000000000000000000000000000000000600052601160045260246000fd5b7f4e487b7100000000000000000000000000000000000000000000000000000000600052601260045260246000fd5b7f4e487b7100000000000000000000000000000000000000000000000000000000600052602260045260246000fd5b7f4e487b7100000000000000000000000000000000000000000000000000000000600052604160045260246000fd5b6000601f19601f8301169050919050565b610ef681610d28565b8114610f0157600080fd5b5056fea26469706673582212206de8d3105e980bc229a7d6a79d8bf731cbda3072a796c29a95c0cb048569a80364736f6c63430008000033",
  "immutableReferences": {},
  "source": "// SPDX-License-Identifier: MIT\npragma solidity >=0.4.22 <0.9.0;\n\ncontract CertiicateStorage {\n\n  struct Cert {\n    uint256 id;\n    string Issuer;\n    string Owner;\n  }\n\n  Cert[] public Certs;\n\n  function getCertificates() public view returns (Cert[] memory) {\n    return Certs;\n  }\n\n  function inputCert(string memory _issuer, string memory _owner) public returns (string memory) {\n        Cert memory newCert = Cert({\n            id: Certs.length,\n            Issuer: _issuer,\n            Owner: _owner\n        });\n\n        Certs.push(newCert);\n\n        string memory msgId = string(abi.encodePacked(\"Id Certificate with number \", toString(newCert.id)));\n\n        return msgId;\n    }\n\n\n  function validateCert(uint256 _id) public view returns (string memory){\n    bool cek = false;\n    for(uint256 i = 0; i < Certs.length;i++){\n      if (Certs[i].id == _id){\n        cek = true;\n      }\n    }\n\n    if(cek){\n      return \"Data Validated\";\n    }else{\n      return \"Data Missing\";\n    }\n  }\n\n   function toString(uint256 value) internal pure returns (string memory) {\n        if (value == 0) {\n            return \"0\";\n        }\n        uint256 temp = value;\n        uint256 digits;\n        while (temp != 0) {\n            digits++;\n            temp /= 10;\n        }\n        bytes memory buffer = new bytes(digits);\n        while (value != 0) {\n            digits -= 1;\n            buffer[digits] = bytes1(uint8(48 + (value % 10)));\n            value /= 10;\n        }\n        return string(buffer);\n    }\n\n}\n",
  "sourcePath": "D:\\XAVIER_DEV_WORKSPACE\\TUBES_PROJECT_BC\\blockchain\\contracts\\Certificate.sol",
  "compiler": {
    "name": "solc",
    "version": "0.8.0+commit.c7dfd78e.Emscripten.clang"
  },
  "schemaVersion": "3.4.16",
  "updatedAt": "2023-12-15T17:42:06.238Z",
  "networkType": "ethereum",
  "devdoc": {
    "kind": "dev",
    "methods": {},
    "version": 1
  },
  "userdoc": {
    "kind": "user",
    "methods": {},
    "version": 1
  }
}