{
  "contractName": "VaccineCertificateStorage",
  "abi": [
    {
      "anonymous": false,
      "inputs": [
        {
          "indexed": true,
          "internalType": "uint256",
          "name": "id",
          "type": "uint256"
        },
        {
          "indexed": true,
          "internalType": "address",
          "name": "issuer",
          "type": "address"
        },
        {
          "indexed": true,
          "internalType": "address",
          "name": "owner",
          "type": "address"
        }
      ],
      "name": "CertificateCreated",
      "type": "event"
    },
    {
      "inputs": [
        {
          "internalType": "address",
          "name": "",
          "type": "address"
        },
        {
          "internalType": "uint256",
          "name": "",
          "type": "uint256"
        }
      ],
      "name": "ownerCertificates",
      "outputs": [
        {
          "internalType": "uint256",
          "name": "",
          "type": "uint256"
        }
      ],
      "stateMutability": "view",
      "type": "function",
      "constant": true
    },
    {
      "inputs": [
        {
          "internalType": "uint256",
          "name": "",
          "type": "uint256"
        }
      ],
      "name": "vaccineCertificates",
      "outputs": [
        {
          "internalType": "uint256",
          "name": "id",
          "type": "uint256"
        },
        {
          "internalType": "address",
          "name": "issuer",
          "type": "address"
        },
        {
          "internalType": "address",
          "name": "owner",
          "type": "address"
        },
        {
          "internalType": "string",
          "name": "vaccineType",
          "type": "string"
        },
        {
          "internalType": "uint256",
          "name": "dateOfVaccination",
          "type": "uint256"
        },
        {
          "internalType": "uint256",
          "name": "dosage",
          "type": "uint256"
        },
        {
          "internalType": "bool",
          "name": "isValid",
          "type": "bool"
        }
      ],
      "stateMutability": "view",
      "type": "function",
      "constant": true
    },
    {
      "inputs": [],
      "name": "getCertificates",
      "outputs": [
        {
          "components": [
            {
              "internalType": "uint256",
              "name": "id",
              "type": "uint256"
            },
            {
              "internalType": "address",
              "name": "issuer",
              "type": "address"
            },
            {
              "internalType": "address",
              "name": "owner",
              "type": "address"
            },
            {
              "internalType": "string",
              "name": "vaccineType",
              "type": "string"
            },
            {
              "internalType": "uint256",
              "name": "dateOfVaccination",
              "type": "uint256"
            },
            {
              "internalType": "uint256",
              "name": "dosage",
              "type": "uint256"
            },
            {
              "internalType": "bool",
              "name": "isValid",
              "type": "bool"
            }
          ],
          "internalType": "struct VaccineCertificateStorage.VaccineCertificate[]",
          "name": "",
          "type": "tuple[]"
        }
      ],
      "stateMutability": "view",
      "type": "function",
      "constant": true
    },
    {
      "inputs": [
        {
          "internalType": "address",
          "name": "_to",
          "type": "address"
        },
        {
          "internalType": "string",
          "name": "_vaccineType",
          "type": "string"
        },
        {
          "internalType": "uint256",
          "name": "_dosage",
          "type": "uint256"
        }
      ],
      "name": "issueCertificate",
      "outputs": [
        {
          "internalType": "uint256",
          "name": "",
          "type": "uint256"
        }
      ],
      "stateMutability": "nonpayable",
      "type": "function"
    },
    {
      "inputs": [
        {
          "internalType": "uint256",
          "name": "_id",
          "type": "uint256"
        }
      ],
      "name": "getVaccineCertificate",
      "outputs": [
        {
          "components": [
            {
              "internalType": "uint256",
              "name": "id",
              "type": "uint256"
            },
            {
              "internalType": "address",
              "name": "issuer",
              "type": "address"
            },
            {
              "internalType": "address",
              "name": "owner",
              "type": "address"
            },
            {
              "internalType": "string",
              "name": "vaccineType",
              "type": "string"
            },
            {
              "internalType": "uint256",
              "name": "dateOfVaccination",
              "type": "uint256"
            },
            {
              "internalType": "uint256",
              "name": "dosage",
              "type": "uint256"
            },
            {
              "internalType": "bool",
              "name": "isValid",
              "type": "bool"
            }
          ],
          "internalType": "struct VaccineCertificateStorage.VaccineCertificate",
          "name": "",
          "type": "tuple"
        }
      ],
      "stateMutability": "view",
      "type": "function",
      "constant": true
    },
    {
      "inputs": [
        {
          "internalType": "uint256",
          "name": "_id",
          "type": "uint256"
        }
      ],
      "name": "validateCertificate",
      "outputs": [
        {
          "components": [
            {
              "internalType": "uint256",
              "name": "id",
              "type": "uint256"
            },
            {
              "internalType": "address",
              "name": "issuer",
              "type": "address"
            },
            {
              "internalType": "address",
              "name": "owner",
              "type": "address"
            },
            {
              "internalType": "string",
              "name": "vaccineType",
              "type": "string"
            },
            {
              "internalType": "uint256",
              "name": "dateOfVaccination",
              "type": "uint256"
            },
            {
              "internalType": "uint256",
              "name": "dosage",
              "type": "uint256"
            },
            {
              "internalType": "bool",
              "name": "isValid",
              "type": "bool"
            }
          ],
          "internalType": "struct VaccineCertificateStorage.VaccineCertificate",
          "name": "",
          "type": "tuple"
        }
      ],
      "stateMutability": "view",
      "type": "function",
      "constant": true
    },
    {
      "inputs": [
        {
          "internalType": "uint256",
          "name": "_id",
          "type": "uint256"
        }
      ],
      "name": "invalidateCertificate",
      "outputs": [],
      "stateMutability": "nonpayable",
      "type": "function"
    },
    {
      "inputs": [
        {
          "internalType": "address",
          "name": "_owner",
          "type": "address"
        }
      ],
      "name": "getOwnerCertificates",
      "outputs": [
        {
          "internalType": "uint256[]",
          "name": "",
          "type": "uint256[]"
        }
      ],
      "stateMutability": "view",
      "type": "function",
      "constant": true
    }
  ],
  "bytecode": "0x608060405234801561001057600080fd5b506117d1806100206000396000f3fe608060405234801561001057600080fd5b50600436106100885760003560e01c80637db3761b1161005b5780637db3761b1461013b578063917bb1c114610157578063e3118c5414610187578063e578e3d8146101bd57610088565b806312bff8471461008d5780631f5ddb4f146100bd578063704b3eb8146100db57806379b08c5b1461010b575b600080fd5b6100a760048036038101906100a29190611039565b6101ed565b6040516100b4919061148f565b60405180910390f35b6100c561040d565b6040516100d2919061140b565b60405180910390f35b6100f560048036038101906100f09190610f96565b6105e3565b60405161010291906114b1565b60405180910390f35b61012560048036038101906101209190610f6d565b610838565b604051610132919061142d565b60405180910390f35b61015560048036038101906101509190611039565b6108cf565b005b610171600480360381019061016c9190610ffd565b610a55565b60405161017e91906114b1565b60405180910390f35b6101a1600480360381019061019c9190611039565b610a86565b6040516101b497969594939291906114cc565b60405180910390f35b6101d760048036038101906101d29190611039565b610bad565b6040516101e4919061148f565b60405180910390f35b6101f5610dcd565b600080549050821061023c576040517f08c379a00000000000000000000000000000000000000000000000000000000081526004016102339061146f565b60405180910390fd5b60008281548110610276577f4e487b7100000000000000000000000000000000000000000000000000000000600052603260045260246000fd5b90600052602060002090600702016040518060e0016040529081600082015481526020016001820160009054906101000a900473ffffffffffffffffffffffffffffffffffffffff1673ffffffffffffffffffffffffffffffffffffffff1673ffffffffffffffffffffffffffffffffffffffff1681526020016002820160009054906101000a900473ffffffffffffffffffffffffffffffffffffffff1673ffffffffffffffffffffffffffffffffffffffff1673ffffffffffffffffffffffffffffffffffffffff168152602001600382018054610355906116cc565b80601f0160208091040260200160405190810160405280929190818152602001828054610381906116cc565b80156103ce5780601f106103a3576101008083540402835291602001916103ce565b820191906000526020600020905b8154815290600101906020018083116103b157829003601f168201915b5050505050815260200160048201548152602001600582015481526020016006820160009054906101000a900460ff1615151515815250509050919050565b60606000805480602002602001604051908101604052809291908181526020016000905b828210156105da57838290600052602060002090600702016040518060e0016040529081600082015481526020016001820160009054906101000a900473ffffffffffffffffffffffffffffffffffffffff1673ffffffffffffffffffffffffffffffffffffffff1673ffffffffffffffffffffffffffffffffffffffff1681526020016002820160009054906101000a900473ffffffffffffffffffffffffffffffffffffffff1673ffffffffffffffffffffffffffffffffffffffff1673ffffffffffffffffffffffffffffffffffffffff16815260200160038201805461051a906116cc565b80601f0160208091040260200160405190810160405280929190818152602001828054610546906116cc565b80156105935780601f1061056857610100808354040283529160200191610593565b820191906000526020600020905b81548152906001019060200180831161057657829003601f168201915b5050505050815260200160048201548152602001600582015481526020016006820160009054906101000a900460ff16151515158152505081526020019060010190610431565b50505050905090565b600080600080549050905060006040518060e001604052808381526020013373ffffffffffffffffffffffffffffffffffffffff1681526020018773ffffffffffffffffffffffffffffffffffffffff16815260200186815260200142815260200185815260200160011515815250905060008190806001815401808255809150506001900390600052602060002090600702016000909190919091506000820151816000015560208201518160010160006101000a81548173ffffffffffffffffffffffffffffffffffffffff021916908373ffffffffffffffffffffffffffffffffffffffff16021790555060408201518160020160006101000a81548173ffffffffffffffffffffffffffffffffffffffff021916908373ffffffffffffffffffffffffffffffffffffffff1602179055506060820151816003019080519060200190610734929190610e38565b506080820151816004015560a0820151816005015560c08201518160060160006101000a81548160ff0219169083151502179055505050600160008773ffffffffffffffffffffffffffffffffffffffff1673ffffffffffffffffffffffffffffffffffffffff1681526020019081526020016000208290806001815401808255809150506001900390600052602060002001600090919091909150558573ffffffffffffffffffffffffffffffffffffffff163373ffffffffffffffffffffffffffffffffffffffff16837f6c7478c2ade540b9b8f75c737ee96b06d287c87d5f87460fcac207e594c2632d60405160405180910390a481925050509392505050565b6060600160008373ffffffffffffffffffffffffffffffffffffffff1673ffffffffffffffffffffffffffffffffffffffff1681526020019081526020016000208054806020026020016040519081016040528092919081815260200182805480156108c357602002820191906000526020600020905b8154815260200190600101908083116108af575b50505050509050919050565b6000805490508110610916576040517f08c379a000000000000000000000000000000000000000000000000000000000815260040161090d9061146f565b60405180910390fd5b60008181548110610950577f4e487b7100000000000000000000000000000000000000000000000000000000600052603260045260246000fd5b906000526020600020906007020160010160009054906101000a900473ffffffffffffffffffffffffffffffffffffffff1673ffffffffffffffffffffffffffffffffffffffff163373ffffffffffffffffffffffffffffffffffffffff16146109ef576040517f08c379a00000000000000000000000000000000000000000000000000000000081526004016109e69061144f565b60405180910390fd5b6000808281548110610a2a577f4e487b7100000000000000000000000000000000000000000000000000000000600052603260045260246000fd5b906000526020600020906007020160060160006101000a81548160ff02191690831515021790555050565b60016020528160005260406000208181548110610a7157600080fd5b90600052602060002001600091509150505481565b60008181548110610a9657600080fd5b90600052602060002090600702016000915090508060000154908060010160009054906101000a900473ffffffffffffffffffffffffffffffffffffffff16908060020160009054906101000a900473ffffffffffffffffffffffffffffffffffffffff1690806003018054610b0b906116cc565b80601f0160208091040260200160405190810160405280929190818152602001828054610b37906116cc565b8015610b845780601f10610b5957610100808354040283529160200191610b84565b820191906000526020600020905b815481529060010190602001808311610b6757829003601f168201915b5050505050908060040154908060050154908060060160009054906101000a900460ff16905087565b610bb5610dcd565b6000805490508210610bfc576040517f08c379a0000000000000000000000000000000000000000000000000000000008152600401610bf39061146f565b60405180910390fd5b60008281548110610c36577f4e487b7100000000000000000000000000000000000000000000000000000000600052603260045260246000fd5b90600052602060002090600702016040518060e0016040529081600082015481526020016001820160009054906101000a900473ffffffffffffffffffffffffffffffffffffffff1673ffffffffffffffffffffffffffffffffffffffff1673ffffffffffffffffffffffffffffffffffffffff1681526020016002820160009054906101000a900473ffffffffffffffffffffffffffffffffffffffff1673ffffffffffffffffffffffffffffffffffffffff1673ffffffffffffffffffffffffffffffffffffffff168152602001600382018054610d15906116cc565b80601f0160208091040260200160405190810160405280929190818152602001828054610d41906116cc565b8015610d8e5780601f10610d6357610100808354040283529160200191610d8e565b820191906000526020600020905b815481529060010190602001808311610d7157829003601f168201915b5050505050815260200160048201548152602001600582015481526020016006820160009054906101000a900460ff1615151515815250509050919050565b6040518060e0016040528060008152602001600073ffffffffffffffffffffffffffffffffffffffff168152602001600073ffffffffffffffffffffffffffffffffffffffff1681526020016060815260200160008152602001600081526020016000151581525090565b828054610e44906116cc565b90600052602060002090601f016020900481019282610e665760008555610ead565b82601f10610e7f57805160ff1916838001178555610ead565b82800160010185558215610ead579182015b82811115610eac578251825591602001919060010190610e91565b5b509050610eba9190610ebe565b5090565b5b80821115610ed7576000816000905550600101610ebf565b5090565b6000610eee610ee984611573565b611542565b905082815260208101848484011115610f0657600080fd5b610f1184828561168a565b509392505050565b600081359050610f288161176d565b92915050565b600082601f830112610f3f57600080fd5b8135610f4f848260208601610edb565b91505092915050565b600081359050610f6781611784565b92915050565b600060208284031215610f7f57600080fd5b6000610f8d84828501610f19565b91505092915050565b600080600060608486031215610fab57600080fd5b6000610fb986828701610f19565b935050602084013567ffffffffffffffff811115610fd657600080fd5b610fe286828701610f2e565b9250506040610ff386828701610f58565b9150509250925092565b6000806040838503121561101057600080fd5b600061101e85828601610f19565b925050602061102f85828601610f58565b9150509250929050565b60006020828403121561104b57600080fd5b600061105984828501610f58565b91505092915050565b600061106e83836112b5565b905092915050565b600061108283836113ed565b60208301905092915050565b61109781611642565b82525050565b6110a681611642565b82525050565b60006110b7826115c3565b6110c181856115fe565b9350836020820285016110d3856115a3565b8060005b8581101561110f57848403895281516110f08582611062565b94506110fb836115e4565b925060208a019950506001810190506110d7565b50829750879550505050505092915050565b600061112c826115ce565b611136818561160f565b9350611141836115b3565b8060005b838110156111725781516111598882611076565b9750611164836115f1565b925050600181019050611145565b5085935050505092915050565b61118881611654565b82525050565b61119781611654565b82525050565b60006111a8826115d9565b6111b28185611620565b93506111c2818560208601611699565b6111cb8161175c565b840191505092915050565b60006111e1826115d9565b6111eb8185611631565b93506111fb818560208601611699565b6112048161175c565b840191505092915050565b600061121c602a83611631565b91507f596f7520617265206e6f742074686520697373756572206f662074686973206360008301527f65727469666963617465000000000000000000000000000000000000000000006020830152604082019050919050565b6000611282601683611631565b91507f496e76616c6964206365727469666963617465204944000000000000000000006000830152602082019050919050565b600060e0830160008301516112cd60008601826113ed565b5060208301516112e0602086018261108e565b5060408301516112f3604086018261108e565b506060830151848203606086015261130b828261119d565b915050608083015161132060808601826113ed565b5060a083015161133360a08601826113ed565b5060c083015161134660c086018261117f565b508091505092915050565b600060e08301600083015161136960008601826113ed565b50602083015161137c602086018261108e565b50604083015161138f604086018261108e565b50606083015184820360608601526113a7828261119d565b91505060808301516113bc60808601826113ed565b5060a08301516113cf60a08601826113ed565b5060c08301516113e260c086018261117f565b508091505092915050565b6113f681611680565b82525050565b61140581611680565b82525050565b6000602082019050818103600083015261142581846110ac565b905092915050565b600060208201905081810360008301526114478184611121565b905092915050565b600060208201905081810360008301526114688161120f565b9050919050565b6000602082019050818103600083015261148881611275565b9050919050565b600060208201905081810360008301526114a98184611351565b905092915050565b60006020820190506114c660008301846113fc565b92915050565b600060e0820190506114e1600083018a6113fc565b6114ee602083018961109d565b6114fb604083018861109d565b818103606083015261150d81876111d6565b905061151c60808301866113fc565b61152960a08301856113fc565b61153660c083018461118e565b98975050505050505050565b6000604051905081810181811067ffffffffffffffff821117156115695761156861172d565b5b8060405250919050565b600067ffffffffffffffff82111561158e5761158d61172d565b5b601f19601f8301169050602081019050919050565b6000819050602082019050919050565b6000819050602082019050919050565b600081519050919050565b600081519050919050565b600081519050919050565b6000602082019050919050565b6000602082019050919050565b600082825260208201905092915050565b600082825260208201905092915050565b600082825260208201905092915050565b600082825260208201905092915050565b600061164d82611660565b9050919050565b60008115159050919050565b600073ffffffffffffffffffffffffffffffffffffffff82169050919050565b6000819050919050565b82818337600083830152505050565b60005b838110156116b757808201518184015260208101905061169c565b838111156116c6576000848401525b50505050565b600060028204905060018216806116e457607f821691505b602082108114156116f8576116f76116fe565b5b50919050565b7f4e487b7100000000000000000000000000000000000000000000000000000000600052602260045260246000fd5b7f4e487b7100000000000000000000000000000000000000000000000000000000600052604160045260246000fd5b6000601f19601f8301169050919050565b61177681611642565b811461178157600080fd5b50565b61178d81611680565b811461179857600080fd5b5056fea2646970667358221220f724b03feac83b416ea5a805825fdddaa10be6ca39131cbfeb927f060083f60c64736f6c63430008000033",
  "immutableReferences": {},
  "source": "// SPDX-License-Identifier: MIT\r\npragma solidity ^0.8.0;\r\n\r\npragma solidity ^0.8.0;\r\n\r\ncontract VaccineCertificateStorage {\r\n    \r\n    struct VaccineCertificate {\r\n        uint256 id;\r\n        address issuer;\r\n        address owner;\r\n        string vaccineType;\r\n        uint256 dateOfVaccination;\r\n        uint256 dosage;\r\n        bool isValid;\r\n    }\r\n\r\n    VaccineCertificate[] public vaccineCertificates;\r\n    mapping(address => uint256[]) public ownerCertificates;\r\n\r\n    event CertificateCreated(uint256 indexed id, address indexed issuer, address indexed owner);\r\n\r\n    function getCertificates() public view returns (VaccineCertificate[] memory) {\r\n        return vaccineCertificates;\r\n    }\r\n\r\n    function issueCertificate(address _to, string memory _vaccineType, uint256 _dosage) public returns (uint256) {\r\n        uint256 newId = vaccineCertificates.length;\r\n\r\n        VaccineCertificate memory newCertificate = VaccineCertificate({\r\n            id: newId,\r\n            issuer: msg.sender,\r\n            owner: _to,\r\n            vaccineType: _vaccineType,\r\n            dateOfVaccination: block.timestamp,\r\n            dosage: _dosage,\r\n            isValid: true\r\n        });\r\n\r\n        vaccineCertificates.push(newCertificate);\r\n        ownerCertificates[_to].push(newId);\r\n\r\n        emit CertificateCreated(newId, msg.sender, _to);\r\n\r\n        return newId;\r\n    }\r\n\r\n    function getVaccineCertificate(uint256 _id) public view returns (VaccineCertificate memory) {\r\n        require(_id < vaccineCertificates.length, \"Invalid certificate ID\");\r\n        return vaccineCertificates[_id];\r\n    }\r\n\r\n    function validateCertificate(uint256 _id) public view returns (VaccineCertificate memory) {\r\n        require(_id < vaccineCertificates.length, \"Invalid certificate ID\");\r\n        return vaccineCertificates[_id];\r\n    }\r\n\r\n    function invalidateCertificate(uint256 _id) public {\r\n        require(_id < vaccineCertificates.length, \"Invalid certificate ID\");\r\n        require(msg.sender == vaccineCertificates[_id].issuer, \"You are not the issuer of this certificate\");\r\n\r\n        vaccineCertificates[_id].isValid = false;\r\n    }\r\n\r\n    function getOwnerCertificates(address _owner) public view returns (uint256[] memory) {\r\n        return ownerCertificates[_owner];\r\n    }\r\n}",
  "sourcePath": "C:\\src\\blockchain-project\\blockchain\\contracts\\Certificate.sol",
  "compiler": {
    "name": "solc",
    "version": "0.8.0+commit.c7dfd78e.Emscripten.clang"
  },
  "schemaVersion": "3.4.16",
  "updatedAt": "2024-01-03T03:28:13.176Z",
  "networkType": "ethereum",
  "devdoc": {
    "kind": "dev",
    "methods": {},
    "version": 1
  },
  "userdoc": {
    "kind": "user",
    "methods": {},
    "version": 1
  }
}